{
  "contractName": "dBank",
  "abi": [
    {
      "inputs": [
        {
          "internalType": "contract Token",
          "name": "_token",
          "type": "address"
        }
      ],
      "stateMutability": "nonpayable",
      "type": "constructor"
    },
    {
      "anonymous": false,
      "inputs": [
        {
          "indexed": false,
          "internalType": "address",
          "name": "_address",
          "type": "address"
        },
        {
          "indexed": false,
          "internalType": "uint256",
          "name": "value",
          "type": "uint256"
        }
      ],
      "name": "Deposit",
      "type": "event"
    },
    {
      "anonymous": false,
      "inputs": [
        {
          "indexed": false,
          "internalType": "address",
          "name": "_address",
          "type": "address"
        },
        {
          "indexed": false,
          "internalType": "uint256",
          "name": "value",
          "type": "uint256"
        },
        {
          "indexed": false,
          "internalType": "uint256",
          "name": "interest",
          "type": "uint256"
        }
      ],
      "name": "Withdraw",
      "type": "event"
    },
    {
      "inputs": [
        {
          "internalType": "address",
          "name": "",
          "type": "address"
        }
      ],
      "name": "balance",
      "outputs": [
        {
          "internalType": "uint256",
          "name": "",
          "type": "uint256"
        }
      ],
      "stateMutability": "view",
      "type": "function",
      "constant": true
    },
    {
      "inputs": [
        {
          "internalType": "address",
          "name": "",
          "type": "address"
        }
      ],
      "name": "depositTime",
      "outputs": [
        {
          "internalType": "uint256",
          "name": "",
          "type": "uint256"
        }
      ],
      "stateMutability": "view",
      "type": "function",
      "constant": true
    },
    {
      "inputs": [
        {
          "internalType": "address",
          "name": "",
          "type": "address"
        }
      ],
      "name": "hasDepositedFunds",
      "outputs": [
        {
          "internalType": "bool",
          "name": "",
          "type": "bool"
        }
      ],
      "stateMutability": "view",
      "type": "function",
      "constant": true
    },
    {
      "inputs": [],
      "name": "deposit",
      "outputs": [],
      "stateMutability": "payable",
      "type": "function",
      "payable": true
    },
    {
      "inputs": [],
      "name": "withdraw",
      "outputs": [],
      "stateMutability": "nonpayable",
      "type": "function"
    },
    {
      "inputs": [],
      "name": "borrow",
      "outputs": [],
      "stateMutability": "payable",
      "type": "function",
      "payable": true
    },
    {
      "inputs": [],
      "name": "payOff",
      "outputs": [],
      "stateMutability": "nonpayable",
      "type": "function"
    }
  ],
  "bytecode": "0x608060405234801561001057600080fd5b506040516109773803806109778339818101604052602081101561003357600080fd5b8101908080519060200190929190505050806000806101000a81548173ffffffffffffffffffffffffffffffffffffffff021916908373ffffffffffffffffffffffffffffffffffffffff16021790555060008054906101000a900473ffffffffffffffffffffffffffffffffffffffff1673ffffffffffffffffffffffffffffffffffffffff16635f7f3300306040518263ffffffff1660e01b8152600401808273ffffffffffffffffffffffffffffffffffffffff168152602001915050600060405180830381600087803b15801561010d57600080fd5b505af1158015610121573d6000803e3d6000fd5b5050505050610842806101356000396000f3fe6080604052600436106100705760003560e01c806382ceb20e1161004e57806382ceb20e14610108578063d0e30db01461016f578063e3d670d714610179578063e68d3569146101de57610070565b80633ccfd60b146100755780633fac68d51461008c57806346c64873146100a3575b600080fd5b34801561008157600080fd5b5061008a6101e8565b005b34801561009857600080fd5b506100a161052e565b005b3480156100af57600080fd5b506100f2600480360360208110156100c657600080fd5b81019080803573ffffffffffffffffffffffffffffffffffffffff169060200190929190505050610530565b6040518082815260200191505060405180910390f35b34801561011457600080fd5b506101576004803603602081101561012b57600080fd5b81019080803573ffffffffffffffffffffffffffffffffffffffff169060200190929190505050610548565b60405180821515815260200191505060405180910390f35b610177610568565b005b34801561018557600080fd5b506101c86004803603602081101561019c57600080fd5b81019080803573ffffffffffffffffffffffffffffffffffffffff1690602001909291905050506107a7565b6040518082815260200191505060405180910390f35b6101e66107bf565b005b60011515600160003373ffffffffffffffffffffffffffffffffffffffff1673ffffffffffffffffffffffffffffffffffffffff16815260200190815260200160002060009054906101000a900460ff161515146102ae576040517f08c379a00000000000000000000000000000000000000000000000000000000081526004018080602001828103825260208152602001807f5573657220686173206e6f74206465706f73697465642066756e64732079657481525060200191505060405180910390fd5b6000600260003373ffffffffffffffffffffffffffffffffffffffff1673ffffffffffffffffffffffffffffffffffffffff1681526020019081526020016000205490506000600360003373ffffffffffffffffffffffffffffffffffffffff1673ffffffffffffffffffffffffffffffffffffffff1681526020019081526020016000205442039050600082820290503373ffffffffffffffffffffffffffffffffffffffff166108fc849081150290604051600060405180830381858888f19350505050158015610385573d6000803e3d6000fd5b5060008054906101000a900473ffffffffffffffffffffffffffffffffffffffff1673ffffffffffffffffffffffffffffffffffffffff166340c10f1933836040518363ffffffff1660e01b8152600401808373ffffffffffffffffffffffffffffffffffffffff16815260200182815260200192505050600060405180830381600087803b15801561041757600080fd5b505af115801561042b573d6000803e3d6000fd5b505050506000600260003373ffffffffffffffffffffffffffffffffffffffff1673ffffffffffffffffffffffffffffffffffffffff168152602001908152602001600020819055506000600160003373ffffffffffffffffffffffffffffffffffffffff1673ffffffffffffffffffffffffffffffffffffffff16815260200190815260200160002060006101000a81548160ff0219169083151502179055507ff279e6a1f5e320cca91135676d9cb6e44ca8a08c0b88342bcdb1144f6511b568338483604051808473ffffffffffffffffffffffffffffffffffffffff168152602001838152602001828152602001935050505060405180910390a1505050565b565b60036020528060005260406000206000915090505481565b60016020528060005260406000206000915054906101000a900460ff1681565b60001515600160003373ffffffffffffffffffffffffffffffffffffffff1673ffffffffffffffffffffffffffffffffffffffff16815260200190815260200160002060009054906101000a900460ff16151514610611576040517f08c379a00000000000000000000000000000000000000000000000000000000081526004018080602001828103825260218152602001806107ec6021913960400191505060405180910390fd5b662386f26fc10000341015610671576040517f08c379a000000000000000000000000000000000000000000000000000000000815260040180806020018281038252602a8152602001806107c2602a913960400191505060405180910390fd5b34600260003373ffffffffffffffffffffffffffffffffffffffff1673ffffffffffffffffffffffffffffffffffffffff1681526020019081526020016000208190555042600360003373ffffffffffffffffffffffffffffffffffffffff1673ffffffffffffffffffffffffffffffffffffffff1681526020019081526020016000208190555060018060003373ffffffffffffffffffffffffffffffffffffffff1673ffffffffffffffffffffffffffffffffffffffff16815260200190815260200160002060006101000a81548160ff0219169083151502179055507fe1fffcc4923d04b559f4d29a8bfc6cda04eb5b0d3c460751c2402c5c5cc9109c3334604051808373ffffffffffffffffffffffffffffffffffffffff1681526020018281526020019250505060405180910390a1565b60026020528060005260406000206000915090505481565b56fe53656e646572206e6565647320746f206465706f736974206d6f7265207468616e20302e303120657468557365722068617320616c6c726561647920646570736f697465642066756e6473a264697066735822122085a359ee9678624df01b89919b766703cd73ec76b9d37cdf85bdfc8a1291671664736f6c634300060c0033",
  "immutableReferences": {},
  "source": "// SPDX-License-Identifier: MIT\r\npragma solidity >=0.6.0 <0.8.0;\r\n\r\nimport \"./Token.sol\";\r\n\r\ncontract dBank {\r\n\r\n  //assign Token contract to variable\r\n  Token token;\r\n\r\n  //add mappings\r\n  mapping(address => bool) public hasDepositedFunds;\r\n  mapping(address => uint256) public balance;\r\n  mapping(address => uint256) public depositTime;\r\n\r\n\r\n  //add events\r\n  event Deposit(address _address, uint value);\r\n  event Withdraw(address _address, uint value, uint interest);\r\n\r\n  //pass as constructor argument deployed Token contract\r\n  constructor(Token _token) public {\r\n    //assign token deployed contract to variable\r\n    token =_token;\r\n    token.passMinter(address(this));\r\n  }\r\n\r\n  function deposit() payable public {\r\n    //check if msg.sender didn't already deposited funds\r\n    require( hasDepositedFunds[msg.sender] == false, \"User has allready depsoited funds\");\r\n    //check if msg.value is >= than 0.01 ETH (10000000000000000 Gwei)\r\n    require(msg.value >= 10000000000000000, \"Sender needs to deposit more than 0.01 eth\");\r\n\r\n    //increase msg.sender ether deposit balance\r\n    balance[msg.sender] = msg.value;\r\n    //start msg.sender hodling time\r\n    depositTime[msg.sender] = block.timestamp;\r\n\r\n    //set msg.sender deposit status to true\r\n    hasDepositedFunds[msg.sender] = true;\r\n    //emit Deposit event\r\n    emit Deposit(msg.sender, msg.value);\r\n\r\n  }\r\n\r\n  function withdraw() public {\r\n    //check if msg.sender deposit status is true\r\n    require(hasDepositedFunds[msg.sender] == true, \"User has not deposited funds yet\");\r\n    //assign msg.sender ether deposit balance to variable for event\r\n    uint256 depositBalance = balance[msg.sender];\r\n\r\n    //check user's hodl time\r\n    uint256 timeInSeconds = (block.timestamp) - depositTime[msg.sender];\r\n\r\n    //calc interest per second \r\n    // I chose 1 token every second\r\n\r\n    //calc accrued interest\r\n    uint256 interest = timeInSeconds * depositBalance;\r\n\r\n    //send eth to user\r\n    msg.sender.transfer(depositBalance);\r\n\r\n    //send interest in tokens to user\r\n    token.mint(msg.sender, interest);\r\n\r\n    //reset depositer data\r\n    balance[msg.sender] = 0;\r\n    hasDepositedFunds[msg.sender] = false;\r\n\r\n    //emit event\r\n    emit Withdraw(msg.sender, depositBalance, interest);\r\n\r\n  }\r\n\r\n  function borrow() payable public {\r\n    //check if collateral is >= than 0.01 ETH\r\n    //check if user doesn't have active loan\r\n\r\n    //add msg.value to ether collateral\r\n\r\n    //calc tokens amount to mint, 50% of msg.value\r\n\r\n    //mint&send tokens to user\r\n\r\n    //activate borrower's loan status\r\n\r\n    //emit event\r\n  }\r\n\r\n  function payOff() public {\r\n    //check if loan is active\r\n    //transfer tokens from user back to the contract\r\n\r\n    //calc fee\r\n\r\n    //send user's collateral minus fee\r\n\r\n    //reset borrower's data\r\n\r\n    //emit event\r\n  }\r\n}",
  "sourcePath": "/home/philip/dev/projects/binance-smart-chain-wallet/contracts/dBank.sol",
  "compiler": {
    "name": "solc",
    "version": "0.6.12+commit.27d51765.Emscripten.clang"
  },
  "schemaVersion": "3.4.1",
  "updatedAt": "2021-07-01T13:54:43.932Z",
  "networkType": "ethereum",
  "devdoc": {
    "kind": "dev",
    "methods": {},
    "version": 1
  },
  "userdoc": {
    "kind": "user",
    "methods": {},
    "version": 1
  }
}